{
  "_format": "hh-sol-artifact-1",
  "contractName": "MockToken",
  "sourceName": "contracts/MockToken.sol",
  "abi": [
    {
      "inputs": [
        {
          "internalType": "uint256",
          "name": "initialSupply",
          "type": "uint256"
        }
      ],
      "stateMutability": "nonpayable",
      "type": "constructor"
    },
    {
      "inputs": [
        {
          "internalType": "address",
          "name": "spender",
          "type": "address"
        },
        {
          "internalType": "uint256",
          "name": "allowance",
          "type": "uint256"
        },
        {
          "internalType": "uint256",
          "name": "needed",
          "type": "uint256"
        }
      ],
      "name": "ERC20InsufficientAllowance",
      "type": "error"
    },
    {
      "inputs": [
        {
          "internalType": "address",
          "name": "sender",
          "type": "address"
        },
        {
          "internalType": "uint256",
          "name": "balance",
          "type": "uint256"
        },
        {
          "internalType": "uint256",
          "name": "needed",
          "type": "uint256"
        }
      ],
      "name": "ERC20InsufficientBalance",
      "type": "error"
    },
    {
      "inputs": [
        {
          "internalType": "address",
          "name": "approver",
          "type": "address"
        }
      ],
      "name": "ERC20InvalidApprover",
      "type": "error"
    },
    {
      "inputs": [
        {
          "internalType": "address",
          "name": "receiver",
          "type": "address"
        }
      ],
      "name": "ERC20InvalidReceiver",
      "type": "error"
    },
    {
      "inputs": [
        {
          "internalType": "address",
          "name": "sender",
          "type": "address"
        }
      ],
      "name": "ERC20InvalidSender",
      "type": "error"
    },
    {
      "inputs": [
        {
          "internalType": "address",
          "name": "spender",
          "type": "address"
        }
      ],
      "name": "ERC20InvalidSpender",
      "type": "error"
    },
    {
      "inputs": [
        {
          "internalType": "address",
          "name": "",
          "type": "address"
        }
      ],
      "name": "Error_Enforced",
      "type": "error"
    },
    {
      "anonymous": false,
      "inputs": [
        {
          "indexed": true,
          "internalType": "address",
          "name": "owner",
          "type": "address"
        },
        {
          "indexed": true,
          "internalType": "address",
          "name": "spender",
          "type": "address"
        },
        {
          "indexed": false,
          "internalType": "uint256",
          "name": "value",
          "type": "uint256"
        }
      ],
      "name": "Approval",
      "type": "event"
    },
    {
      "anonymous": false,
      "inputs": [
        {
          "indexed": true,
          "internalType": "address",
          "name": "from",
          "type": "address"
        },
        {
          "indexed": true,
          "internalType": "address",
          "name": "to",
          "type": "address"
        },
        {
          "indexed": false,
          "internalType": "uint256",
          "name": "value",
          "type": "uint256"
        }
      ],
      "name": "Transfer",
      "type": "event"
    },
    {
      "inputs": [
        {
          "internalType": "address",
          "name": "owner",
          "type": "address"
        },
        {
          "internalType": "address",
          "name": "spender",
          "type": "address"
        }
      ],
      "name": "allowance",
      "outputs": [
        {
          "internalType": "uint256",
          "name": "",
          "type": "uint256"
        }
      ],
      "stateMutability": "view",
      "type": "function"
    },
    {
      "inputs": [
        {
          "internalType": "address",
          "name": "spender",
          "type": "address"
        },
        {
          "internalType": "uint256",
          "name": "value",
          "type": "uint256"
        }
      ],
      "name": "approve",
      "outputs": [
        {
          "internalType": "bool",
          "name": "",
          "type": "bool"
        }
      ],
      "stateMutability": "nonpayable",
      "type": "function"
    },
    {
      "inputs": [
        {
          "internalType": "address",
          "name": "account",
          "type": "address"
        }
      ],
      "name": "balanceOf",
      "outputs": [
        {
          "internalType": "uint256",
          "name": "",
          "type": "uint256"
        }
      ],
      "stateMutability": "view",
      "type": "function"
    },
    {
      "inputs": [],
      "name": "decimals",
      "outputs": [
        {
          "internalType": "uint8",
          "name": "",
          "type": "uint8"
        }
      ],
      "stateMutability": "view",
      "type": "function"
    },
    {
      "inputs": [],
      "name": "fail",
      "outputs": [],
      "stateMutability": "nonpayable",
      "type": "function"
    },
    {
      "inputs": [
        {
          "internalType": "uint256",
          "name": "value",
          "type": "uint256"
        }
      ],
      "name": "mint",
      "outputs": [],
      "stateMutability": "nonpayable",
      "type": "function"
    },
    {
      "inputs": [],
      "name": "name",
      "outputs": [
        {
          "internalType": "string",
          "name": "",
          "type": "string"
        }
      ],
      "stateMutability": "view",
      "type": "function"
    },
    {
      "inputs": [],
      "name": "symbol",
      "outputs": [
        {
          "internalType": "string",
          "name": "",
          "type": "string"
        }
      ],
      "stateMutability": "view",
      "type": "function"
    },
    {
      "inputs": [],
      "name": "totalSupply",
      "outputs": [
        {
          "internalType": "uint256",
          "name": "",
          "type": "uint256"
        }
      ],
      "stateMutability": "view",
      "type": "function"
    },
    {
      "inputs": [
        {
          "internalType": "address",
          "name": "to",
          "type": "address"
        },
        {
          "internalType": "uint256",
          "name": "value",
          "type": "uint256"
        }
      ],
      "name": "transfer",
      "outputs": [
        {
          "internalType": "bool",
          "name": "",
          "type": "bool"
        }
      ],
      "stateMutability": "nonpayable",
      "type": "function"
    },
    {
      "inputs": [
        {
          "internalType": "address",
          "name": "from",
          "type": "address"
        },
        {
          "internalType": "address",
          "name": "to",
          "type": "address"
        },
        {
          "internalType": "uint256",
          "name": "value",
          "type": "uint256"
        }
      ],
      "name": "transferFrom",
      "outputs": [
        {
          "internalType": "bool",
          "name": "",
          "type": "bool"
        }
      ],
      "stateMutability": "nonpayable",
      "type": "function"
    }
  ],
  "bytecode": "0x60806040523480156200001157600080fd5b5060405162001839380380620018398339818101604052810190620000379190620003df565b6040518060400160405280600981526020017f4d6f636b546f6b656e00000000000000000000000000000000000000000000008152506040518060400160405280600381526020017f4d544b00000000000000000000000000000000000000000000000000000000008152508160039081620000b4919062000681565b508060049081620000c6919062000681565b505050620000db3382620000e260201b60201c565b506200089f565b600073ffffffffffffffffffffffffffffffffffffffff168273ffffffffffffffffffffffffffffffffffffffff1603620001575760006040517fec442f050000000000000000000000000000000000000000000000000000000081526004016200014e9190620007ad565b60405180910390fd5b6200016b600083836200016f60201b60201c565b5050565b600073ffffffffffffffffffffffffffffffffffffffff168373ffffffffffffffffffffffffffffffffffffffff1603620001c5578060026000828254620001b89190620007f9565b925050819055506200029b565b60008060008573ffffffffffffffffffffffffffffffffffffffff1673ffffffffffffffffffffffffffffffffffffffff1681526020019081526020016000205490508181101562000254578381836040517fe450d38c0000000000000000000000000000000000000000000000000000000081526004016200024b9392919062000845565b60405180910390fd5b8181036000808673ffffffffffffffffffffffffffffffffffffffff1673ffffffffffffffffffffffffffffffffffffffff16815260200190815260200160002081905550505b600073ffffffffffffffffffffffffffffffffffffffff168273ffffffffffffffffffffffffffffffffffffffff1603620002e6578060026000828254039250508190555062000333565b806000808473ffffffffffffffffffffffffffffffffffffffff1673ffffffffffffffffffffffffffffffffffffffff168152602001908152602001600020600082825401925050819055505b8173ffffffffffffffffffffffffffffffffffffffff168373ffffffffffffffffffffffffffffffffffffffff167fddf252ad1be2c89b69c2b068fc378daa952ba7f163c4a11628f55a4df523b3ef8360405162000392919062000882565b60405180910390a3505050565b600080fd5b6000819050919050565b620003b981620003a4565b8114620003c557600080fd5b50565b600081519050620003d981620003ae565b92915050565b600060208284031215620003f857620003f76200039f565b5b60006200040884828501620003c8565b91505092915050565b600081519050919050565b7f4e487b7100000000000000000000000000000000000000000000000000000000600052604160045260246000fd5b7f4e487b7100000000000000000000000000000000000000000000000000000000600052602260045260246000fd5b600060028204905060018216806200049357607f821691505b602082108103620004a957620004a86200044b565b5b50919050565b60008190508160005260206000209050919050565b60006020601f8301049050919050565b600082821b905092915050565b600060088302620005137fffffffffffffffffffffffffffffffffffffffffffffffffffffffffffffffff82620004d4565b6200051f8683620004d4565b95508019841693508086168417925050509392505050565b6000819050919050565b6000620005626200055c6200055684620003a4565b62000537565b620003a4565b9050919050565b6000819050919050565b6200057e8362000541565b620005966200058d8262000569565b848454620004e1565b825550505050565b600090565b620005ad6200059e565b620005ba81848462000573565b505050565b5b81811015620005e257620005d6600082620005a3565b600181019050620005c0565b5050565b601f8211156200063157620005fb81620004af565b6200060684620004c4565b8101602085101562000616578190505b6200062e6200062585620004c4565b830182620005bf565b50505b505050565b600082821c905092915050565b6000620006566000198460080262000636565b1980831691505092915050565b600062000671838362000643565b9150826002028217905092915050565b6200068c8262000411565b67ffffffffffffffff811115620006a857620006a76200041c565b5b620006b482546200047a565b620006c1828285620005e6565b600060209050601f831160018114620006f95760008415620006e4578287015190505b620006f0858262000663565b86555062000760565b601f1984166200070986620004af565b60005b8281101562000733578489015182556001820191506020850194506020810190506200070c565b868310156200075357848901516200074f601f89168262000643565b8355505b6001600288020188555050505b505050505050565b600073ffffffffffffffffffffffffffffffffffffffff82169050919050565b6000620007958262000768565b9050919050565b620007a78162000788565b82525050565b6000602082019050620007c460008301846200079c565b92915050565b7f4e487b7100000000000000000000000000000000000000000000000000000000600052601160045260246000fd5b60006200080682620003a4565b91506200081383620003a4565b92508282019050808211156200082e576200082d620007ca565b5b92915050565b6200083f81620003a4565b82525050565b60006060820190506200085c60008301866200079c565b6200086b602083018562000834565b6200087a604083018462000834565b949350505050565b600060208201905062000899600083018462000834565b92915050565b610f8a80620008af6000396000f3fe608060405234801561001057600080fd5b50600436106100a95760003560e01c806370a082311161007157806370a082311461016857806395d89b4114610198578063a0712d68146101b6578063a9059cbb146101d2578063a9cc471814610202578063dd62ed3e1461020c576100a9565b806306fdde03146100ae578063095ea7b3146100cc57806318160ddd146100fc57806323b872dd1461011a578063313ce5671461014a575b600080fd5b6100b661023c565b6040516100c39190610bb1565b60405180910390f35b6100e660048036038101906100e19190610c6c565b6102ce565b6040516100f39190610cc7565b60405180910390f35b6101046102f1565b6040516101119190610cf1565b60405180910390f35b610134600480360381019061012f9190610d0c565b6102fb565b6040516101419190610cc7565b60405180910390f35b61015261032a565b60405161015f9190610d7b565b60405180910390f35b610182600480360381019061017d9190610d96565b610333565b60405161018f9190610cf1565b60405180910390f35b6101a061037b565b6040516101ad9190610bb1565b60405180910390f35b6101d060048036038101906101cb9190610dc3565b61040d565b005b6101ec60048036038101906101e79190610c6c565b61041a565b6040516101f99190610cc7565b60405180910390f35b61020a61043d565b005b61022660048036038101906102219190610df0565b61047a565b6040516102339190610cf1565b60405180910390f35b60606003805461024b90610e5f565b80601f016020809104026020016040519081016040528092919081815260200182805461027790610e5f565b80156102c45780601f10610299576101008083540402835291602001916102c4565b820191906000526020600020905b8154815290600101906020018083116102a757829003601f168201915b5050505050905090565b6000806102d9610501565b90506102e6818585610509565b600191505092915050565b6000600254905090565b600080610306610501565b905061031385828561051b565b61031e8585856105af565b60019150509392505050565b60006012905090565b60008060008373ffffffffffffffffffffffffffffffffffffffff1673ffffffffffffffffffffffffffffffffffffffff168152602001908152602001600020549050919050565b60606004805461038a90610e5f565b80601f01602080910402602001604051908101604052809291908181526020018280546103b690610e5f565b80156104035780601f106103d857610100808354040283529160200191610403565b820191906000526020600020905b8154815290600101906020018083116103e657829003601f168201915b5050505050905090565b61041733826106a3565b50565b600080610425610501565b90506104328185856105af565b600191505092915050565b336040517f81f920650000000000000000000000000000000000000000000000000000000081526004016104719190610e9f565b60405180910390fd5b6000600160008473ffffffffffffffffffffffffffffffffffffffff1673ffffffffffffffffffffffffffffffffffffffff16815260200190815260200160002060008373ffffffffffffffffffffffffffffffffffffffff1673ffffffffffffffffffffffffffffffffffffffff16815260200190815260200160002054905092915050565b600033905090565b6105168383836001610725565b505050565b6000610527848461047a565b90507fffffffffffffffffffffffffffffffffffffffffffffffffffffffffffffffff81146105a95781811015610599578281836040517ffb8f41b200000000000000000000000000000000000000000000000000000000815260040161059093929190610eba565b60405180910390fd5b6105a884848484036000610725565b5b50505050565b600073ffffffffffffffffffffffffffffffffffffffff168373ffffffffffffffffffffffffffffffffffffffff16036106215760006040517f96c6fd1e0000000000000000000000000000000000000000000000000000000081526004016106189190610e9f565b60405180910390fd5b600073ffffffffffffffffffffffffffffffffffffffff168273ffffffffffffffffffffffffffffffffffffffff16036106935760006040517fec442f0500000000000000000000000000000000000000000000000000000000815260040161068a9190610e9f565b60405180910390fd5b61069e8383836108fc565b505050565b600073ffffffffffffffffffffffffffffffffffffffff168273ffffffffffffffffffffffffffffffffffffffff16036107155760006040517fec442f0500000000000000000000000000000000000000000000000000000000815260040161070c9190610e9f565b60405180910390fd5b610721600083836108fc565b5050565b600073ffffffffffffffffffffffffffffffffffffffff168473ffffffffffffffffffffffffffffffffffffffff16036107975760006040517fe602df0500000000000000000000000000000000000000000000000000000000815260040161078e9190610e9f565b60405180910390fd5b600073ffffffffffffffffffffffffffffffffffffffff168373ffffffffffffffffffffffffffffffffffffffff16036108095760006040517f94280d620000000000000000000000000000000000000000000000000000000081526004016108009190610e9f565b60405180910390fd5b81600160008673ffffffffffffffffffffffffffffffffffffffff1673ffffffffffffffffffffffffffffffffffffffff16815260200190815260200160002060008573ffffffffffffffffffffffffffffffffffffffff1673ffffffffffffffffffffffffffffffffffffffff1681526020019081526020016000208190555080156108f6578273ffffffffffffffffffffffffffffffffffffffff168473ffffffffffffffffffffffffffffffffffffffff167f8c5be1e5ebec7d5bd14f71427d1e84f3dd0314c0f7b2291e5b200ac8c7c3b925846040516108ed9190610cf1565b60405180910390a35b50505050565b600073ffffffffffffffffffffffffffffffffffffffff168373ffffffffffffffffffffffffffffffffffffffff160361094e5780600260008282546109429190610f20565b92505081905550610a21565b60008060008573ffffffffffffffffffffffffffffffffffffffff1673ffffffffffffffffffffffffffffffffffffffff168152602001908152602001600020549050818110156109da578381836040517fe450d38c0000000000000000000000000000000000000000000000000000000081526004016109d193929190610eba565b60405180910390fd5b8181036000808673ffffffffffffffffffffffffffffffffffffffff1673ffffffffffffffffffffffffffffffffffffffff16815260200190815260200160002081905550505b600073ffffffffffffffffffffffffffffffffffffffff168273ffffffffffffffffffffffffffffffffffffffff1603610a6a5780600260008282540392505081905550610ab7565b806000808473ffffffffffffffffffffffffffffffffffffffff1673ffffffffffffffffffffffffffffffffffffffff168152602001908152602001600020600082825401925050819055505b8173ffffffffffffffffffffffffffffffffffffffff168373ffffffffffffffffffffffffffffffffffffffff167fddf252ad1be2c89b69c2b068fc378daa952ba7f163c4a11628f55a4df523b3ef83604051610b149190610cf1565b60405180910390a3505050565b600081519050919050565b600082825260208201905092915050565b60005b83811015610b5b578082015181840152602081019050610b40565b60008484015250505050565b6000601f19601f8301169050919050565b6000610b8382610b21565b610b8d8185610b2c565b9350610b9d818560208601610b3d565b610ba681610b67565b840191505092915050565b60006020820190508181036000830152610bcb8184610b78565b905092915050565b600080fd5b600073ffffffffffffffffffffffffffffffffffffffff82169050919050565b6000610c0382610bd8565b9050919050565b610c1381610bf8565b8114610c1e57600080fd5b50565b600081359050610c3081610c0a565b92915050565b6000819050919050565b610c4981610c36565b8114610c5457600080fd5b50565b600081359050610c6681610c40565b92915050565b60008060408385031215610c8357610c82610bd3565b5b6000610c9185828601610c21565b9250506020610ca285828601610c57565b9150509250929050565b60008115159050919050565b610cc181610cac565b82525050565b6000602082019050610cdc6000830184610cb8565b92915050565b610ceb81610c36565b82525050565b6000602082019050610d066000830184610ce2565b92915050565b600080600060608486031215610d2557610d24610bd3565b5b6000610d3386828701610c21565b9350506020610d4486828701610c21565b9250506040610d5586828701610c57565b9150509250925092565b600060ff82169050919050565b610d7581610d5f565b82525050565b6000602082019050610d906000830184610d6c565b92915050565b600060208284031215610dac57610dab610bd3565b5b6000610dba84828501610c21565b91505092915050565b600060208284031215610dd957610dd8610bd3565b5b6000610de784828501610c57565b91505092915050565b60008060408385031215610e0757610e06610bd3565b5b6000610e1585828601610c21565b9250506020610e2685828601610c21565b9150509250929050565b7f4e487b7100000000000000000000000000000000000000000000000000000000600052602260045260246000fd5b60006002820490506001821680610e7757607f821691505b602082108103610e8a57610e89610e30565b5b50919050565b610e9981610bf8565b82525050565b6000602082019050610eb46000830184610e90565b92915050565b6000606082019050610ecf6000830186610e90565b610edc6020830185610ce2565b610ee96040830184610ce2565b949350505050565b7f4e487b7100000000000000000000000000000000000000000000000000000000600052601160045260246000fd5b6000610f2b82610c36565b9150610f3683610c36565b9250828201905080821115610f4e57610f4d610ef1565b5b9291505056fea264697066735822122089c5f6d1cde468b3d057d8b940a72d756910610c6f3a8e4262594f9effc0daaa64736f6c63430008140033",
  "linkReferences": {},
  "deployedLinkReferences": {}
}